{
  "_format": "hh3-artifact-1",
  "contractName": "SongNFT",
  "sourceName": "contracts/SongNFT.sol",
  "abi": [
    {
      "inputs": [
        {
          "internalType": "string",
          "name": "name_",
          "type": "string"
        },
        {
          "internalType": "string",
          "name": "symbol_",
          "type": "string"
        },
        {
          "internalType": "string",
          "name": "baseURI_",
          "type": "string"
        },
        {
          "internalType": "uint256",
          "name": "maxSupply_",
          "type": "uint256"
        },
        {
          "internalType": "uint256",
          "name": "mintPrice_",
          "type": "uint256"
        }
      ],
      "stateMutability": "nonpayable",
      "type": "constructor"
    },
    {
      "inputs": [
        {
          "internalType": "uint256",
          "name": "numerator",
          "type": "uint256"
        },
        {
          "internalType": "uint256",
          "name": "denominator",
          "type": "uint256"
        }
      ],
      "name": "ERC2981InvalidDefaultRoyalty",
      "type": "error"
    },
    {
      "inputs": [
        {
          "internalType": "address",
          "name": "receiver",
          "type": "address"
        }
      ],
      "name": "ERC2981InvalidDefaultRoyaltyReceiver",
      "type": "error"
    },
    {
      "inputs": [
        {
          "internalType": "uint256",
          "name": "tokenId",
          "type": "uint256"
        },
        {
          "internalType": "uint256",
          "name": "numerator",
          "type": "uint256"
        },
        {
          "internalType": "uint256",
          "name": "denominator",
          "type": "uint256"
        }
      ],
      "name": "ERC2981InvalidTokenRoyalty",
      "type": "error"
    },
    {
      "inputs": [
        {
          "internalType": "uint256",
          "name": "tokenId",
          "type": "uint256"
        },
        {
          "internalType": "address",
          "name": "receiver",
          "type": "address"
        }
      ],
      "name": "ERC2981InvalidTokenRoyaltyReceiver",
      "type": "error"
    },
    {
      "inputs": [],
      "name": "ERC721EnumerableForbiddenBatchMint",
      "type": "error"
    },
    {
      "inputs": [
        {
          "internalType": "address",
          "name": "sender",
          "type": "address"
        },
        {
          "internalType": "uint256",
          "name": "tokenId",
          "type": "uint256"
        },
        {
          "internalType": "address",
          "name": "owner",
          "type": "address"
        }
      ],
      "name": "ERC721IncorrectOwner",
      "type": "error"
    },
    {
      "inputs": [
        {
          "internalType": "address",
          "name": "operator",
          "type": "address"
        },
        {
          "internalType": "uint256",
          "name": "tokenId",
          "type": "uint256"
        }
      ],
      "name": "ERC721InsufficientApproval",
      "type": "error"
    },
    {
      "inputs": [
        {
          "internalType": "address",
          "name": "approver",
          "type": "address"
        }
      ],
      "name": "ERC721InvalidApprover",
      "type": "error"
    },
    {
      "inputs": [
        {
          "internalType": "address",
          "name": "operator",
          "type": "address"
        }
      ],
      "name": "ERC721InvalidOperator",
      "type": "error"
    },
    {
      "inputs": [
        {
          "internalType": "address",
          "name": "owner",
          "type": "address"
        }
      ],
      "name": "ERC721InvalidOwner",
      "type": "error"
    },
    {
      "inputs": [
        {
          "internalType": "address",
          "name": "receiver",
          "type": "address"
        }
      ],
      "name": "ERC721InvalidReceiver",
      "type": "error"
    },
    {
      "inputs": [
        {
          "internalType": "address",
          "name": "sender",
          "type": "address"
        }
      ],
      "name": "ERC721InvalidSender",
      "type": "error"
    },
    {
      "inputs": [
        {
          "internalType": "uint256",
          "name": "tokenId",
          "type": "uint256"
        }
      ],
      "name": "ERC721NonexistentToken",
      "type": "error"
    },
    {
      "inputs": [
        {
          "internalType": "address",
          "name": "owner",
          "type": "address"
        },
        {
          "internalType": "uint256",
          "name": "index",
          "type": "uint256"
        }
      ],
      "name": "ERC721OutOfBoundsIndex",
      "type": "error"
    },
    {
      "inputs": [
        {
          "internalType": "address",
          "name": "owner",
          "type": "address"
        }
      ],
      "name": "OwnableInvalidOwner",
      "type": "error"
    },
    {
      "inputs": [
        {
          "internalType": "address",
          "name": "account",
          "type": "address"
        }
      ],
      "name": "OwnableUnauthorizedAccount",
      "type": "error"
    },
    {
      "inputs": [],
      "name": "ReentrancyGuardReentrantCall",
      "type": "error"
    },
    {
      "anonymous": false,
      "inputs": [
        {
          "indexed": true,
          "internalType": "address",
          "name": "owner",
          "type": "address"
        },
        {
          "indexed": true,
          "internalType": "address",
          "name": "approved",
          "type": "address"
        },
        {
          "indexed": true,
          "internalType": "uint256",
          "name": "tokenId",
          "type": "uint256"
        }
      ],
      "name": "Approval",
      "type": "event"
    },
    {
      "anonymous": false,
      "inputs": [
        {
          "indexed": true,
          "internalType": "address",
          "name": "owner",
          "type": "address"
        },
        {
          "indexed": true,
          "internalType": "address",
          "name": "operator",
          "type": "address"
        },
        {
          "indexed": false,
          "internalType": "bool",
          "name": "approved",
          "type": "bool"
        }
      ],
      "name": "ApprovalForAll",
      "type": "event"
    },
    {
      "anonymous": false,
      "inputs": [
        {
          "indexed": false,
          "internalType": "string",
          "name": "newBaseURI",
          "type": "string"
        }
      ],
      "name": "BaseURIUpdated",
      "type": "event"
    },
    {
      "anonymous": false,
      "inputs": [
        {
          "indexed": false,
          "internalType": "uint256",
          "name": "_fromTokenId",
          "type": "uint256"
        },
        {
          "indexed": false,
          "internalType": "uint256",
          "name": "_toTokenId",
          "type": "uint256"
        }
      ],
      "name": "BatchMetadataUpdate",
      "type": "event"
    },
    {
      "anonymous": false,
      "inputs": [
        {
          "indexed": false,
          "internalType": "uint256",
          "name": "_tokenId",
          "type": "uint256"
        }
      ],
      "name": "MetadataUpdate",
      "type": "event"
    },
    {
      "anonymous": false,
      "inputs": [
        {
          "indexed": false,
          "internalType": "uint256",
          "name": "oldPrice",
          "type": "uint256"
        },
        {
          "indexed": false,
          "internalType": "uint256",
          "name": "newPrice",
          "type": "uint256"
        }
      ],
      "name": "MintPriceUpdated",
      "type": "event"
    },
    {
      "anonymous": false,
      "inputs": [
        {
          "indexed": true,
          "internalType": "address",
          "name": "to",
          "type": "address"
        },
        {
          "indexed": true,
          "internalType": "uint256",
          "name": "tokenId",
          "type": "uint256"
        },
        {
          "indexed": false,
          "internalType": "string",
          "name": "tokenURI",
          "type": "string"
        }
      ],
      "name": "Minted",
      "type": "event"
    },
    {
      "anonymous": false,
      "inputs": [
        {
          "indexed": true,
          "internalType": "address",
          "name": "previousOwner",
          "type": "address"
        },
        {
          "indexed": true,
          "internalType": "address",
          "name": "newOwner",
          "type": "address"
        }
      ],
      "name": "OwnershipTransferred",
      "type": "event"
    },
    {
      "anonymous": false,
      "inputs": [
        {
          "indexed": true,
          "internalType": "uint256",
          "name": "tokenId",
          "type": "uint256"
        },
        {
          "indexed": false,
          "internalType": "address",
          "name": "receiver",
          "type": "address"
        },
        {
          "indexed": false,
          "internalType": "uint96",
          "name": "feeBps",
          "type": "uint96"
        }
      ],
      "name": "RoyaltyUpdated",
      "type": "event"
    },
    {
      "anonymous": false,
      "inputs": [
        {
          "indexed": true,
          "internalType": "address",
          "name": "from",
          "type": "address"
        },
        {
          "indexed": true,
          "internalType": "address",
          "name": "to",
          "type": "address"
        },
        {
          "indexed": true,
          "internalType": "uint256",
          "name": "tokenId",
          "type": "uint256"
        }
      ],
      "name": "Transfer",
      "type": "event"
    },
    {
      "inputs": [],
      "name": "MAX_SUPPLY",
      "outputs": [
        {
          "internalType": "uint256",
          "name": "",
          "type": "uint256"
        }
      ],
      "stateMutability": "view",
      "type": "function"
    },
    {
      "inputs": [
        {
          "internalType": "address",
          "name": "to",
          "type": "address"
        },
        {
          "internalType": "uint256",
          "name": "tokenId",
          "type": "uint256"
        }
      ],
      "name": "approve",
      "outputs": [],
      "stateMutability": "nonpayable",
      "type": "function"
    },
    {
      "inputs": [
        {
          "internalType": "address",
          "name": "owner",
          "type": "address"
        }
      ],
      "name": "balanceOf",
      "outputs": [
        {
          "internalType": "uint256",
          "name": "",
          "type": "uint256"
        }
      ],
      "stateMutability": "view",
      "type": "function"
    },
    {
      "inputs": [
        {
          "internalType": "address",
          "name": "to",
          "type": "address"
        },
        {
          "internalType": "string[]",
          "name": "uris",
          "type": "string[]"
        }
      ],
      "name": "batchMint",
      "outputs": [],
      "stateMutability": "nonpayable",
      "type": "function"
    },
    {
      "inputs": [
        {
          "internalType": "uint256",
          "name": "",
          "type": "uint256"
        }
      ],
      "name": "creators",
      "outputs": [
        {
          "internalType": "address",
          "name": "",
          "type": "address"
        }
      ],
      "stateMutability": "view",
      "type": "function"
    },
    {
      "inputs": [],
      "name": "defaultRoyaltyBps",
      "outputs": [
        {
          "internalType": "uint96",
          "name": "",
          "type": "uint96"
        }
      ],
      "stateMutability": "view",
      "type": "function"
    },
    {
      "inputs": [
        {
          "internalType": "uint256",
          "name": "tokenId",
          "type": "uint256"
        }
      ],
      "name": "getApproved",
      "outputs": [
        {
          "internalType": "address",
          "name": "",
          "type": "address"
        }
      ],
      "stateMutability": "view",
      "type": "function"
    },
    {
      "inputs": [
        {
          "internalType": "uint256",
          "name": "tokenId",
          "type": "uint256"
        }
      ],
      "name": "getCreator",
      "outputs": [
        {
          "internalType": "address",
          "name": "",
          "type": "address"
        }
      ],
      "stateMutability": "view",
      "type": "function"
    },
    {
      "inputs": [
        {
          "internalType": "address",
          "name": "owner",
          "type": "address"
        },
        {
          "internalType": "address",
          "name": "operator",
          "type": "address"
        }
      ],
      "name": "isApprovedForAll",
      "outputs": [
        {
          "internalType": "bool",
          "name": "",
          "type": "bool"
        }
      ],
      "stateMutability": "view",
      "type": "function"
    },
    {
      "inputs": [],
      "name": "isSoldOut",
      "outputs": [
        {
          "internalType": "bool",
          "name": "",
          "type": "bool"
        }
      ],
      "stateMutability": "view",
      "type": "function"
    },
    {
      "inputs": [
        {
          "internalType": "address",
          "name": "to",
          "type": "address"
        },
        {
          "internalType": "string",
          "name": "uri",
          "type": "string"
        }
      ],
      "name": "mint",
      "outputs": [],
      "stateMutability": "nonpayable",
      "type": "function"
    },
    {
      "inputs": [],
      "name": "mintPrice",
      "outputs": [
        {
          "internalType": "uint256",
          "name": "",
          "type": "uint256"
        }
      ],
      "stateMutability": "view",
      "type": "function"
    },
    {
      "inputs": [],
      "name": "name",
      "outputs": [
        {
          "internalType": "string",
          "name": "",
          "type": "string"
        }
      ],
      "stateMutability": "view",
      "type": "function"
    },
    {
      "inputs": [],
      "name": "nextTokenId",
      "outputs": [
        {
          "internalType": "uint256",
          "name": "",
          "type": "uint256"
        }
      ],
      "stateMutability": "view",
      "type": "function"
    },
    {
      "inputs": [],
      "name": "owner",
      "outputs": [
        {
          "internalType": "address",
          "name": "",
          "type": "address"
        }
      ],
      "stateMutability": "view",
      "type": "function"
    },
    {
      "inputs": [
        {
          "internalType": "uint256",
          "name": "tokenId",
          "type": "uint256"
        }
      ],
      "name": "ownerOf",
      "outputs": [
        {
          "internalType": "address",
          "name": "",
          "type": "address"
        }
      ],
      "stateMutability": "view",
      "type": "function"
    },
    {
      "inputs": [
        {
          "internalType": "string",
          "name": "uri",
          "type": "string"
        }
      ],
      "name": "publicMint",
      "outputs": [],
      "stateMutability": "payable",
      "type": "function"
    },
    {
      "inputs": [],
      "name": "renounceOwnership",
      "outputs": [],
      "stateMutability": "nonpayable",
      "type": "function"
    },
    {
      "inputs": [
        {
          "internalType": "uint256",
          "name": "tokenId",
          "type": "uint256"
        },
        {
          "internalType": "uint256",
          "name": "salePrice",
          "type": "uint256"
        }
      ],
      "name": "royaltyInfo",
      "outputs": [
        {
          "internalType": "address",
          "name": "receiver",
          "type": "address"
        },
        {
          "internalType": "uint256",
          "name": "amount",
          "type": "uint256"
        }
      ],
      "stateMutability": "view",
      "type": "function"
    },
    {
      "inputs": [
        {
          "internalType": "address",
          "name": "from",
          "type": "address"
        },
        {
          "internalType": "address",
          "name": "to",
          "type": "address"
        },
        {
          "internalType": "uint256",
          "name": "tokenId",
          "type": "uint256"
        }
      ],
      "name": "safeTransferFrom",
      "outputs": [],
      "stateMutability": "nonpayable",
      "type": "function"
    },
    {
      "inputs": [
        {
          "internalType": "address",
          "name": "from",
          "type": "address"
        },
        {
          "internalType": "address",
          "name": "to",
          "type": "address"
        },
        {
          "internalType": "uint256",
          "name": "tokenId",
          "type": "uint256"
        },
        {
          "internalType": "bytes",
          "name": "data",
          "type": "bytes"
        }
      ],
      "name": "safeTransferFrom",
      "outputs": [],
      "stateMutability": "nonpayable",
      "type": "function"
    },
    {
      "inputs": [
        {
          "internalType": "address",
          "name": "operator",
          "type": "address"
        },
        {
          "internalType": "bool",
          "name": "approved",
          "type": "bool"
        }
      ],
      "name": "setApprovalForAll",
      "outputs": [],
      "stateMutability": "nonpayable",
      "type": "function"
    },
    {
      "inputs": [
        {
          "internalType": "string",
          "name": "newBaseURI",
          "type": "string"
        }
      ],
      "name": "setBaseURI",
      "outputs": [],
      "stateMutability": "nonpayable",
      "type": "function"
    },
    {
      "inputs": [
        {
          "internalType": "uint96",
          "name": "feeBps",
          "type": "uint96"
        }
      ],
      "name": "setDefaultRoyalty",
      "outputs": [],
      "stateMutability": "nonpayable",
      "type": "function"
    },
    {
      "inputs": [
        {
          "internalType": "uint256",
          "name": "newPrice",
          "type": "uint256"
        }
      ],
      "name": "setMintPrice",
      "outputs": [],
      "stateMutability": "nonpayable",
      "type": "function"
    },
    {
      "inputs": [
        {
          "internalType": "bytes4",
          "name": "interfaceId",
          "type": "bytes4"
        }
      ],
      "name": "supportsInterface",
      "outputs": [
        {
          "internalType": "bool",
          "name": "",
          "type": "bool"
        }
      ],
      "stateMutability": "view",
      "type": "function"
    },
    {
      "inputs": [],
      "name": "symbol",
      "outputs": [
        {
          "internalType": "string",
          "name": "",
          "type": "string"
        }
      ],
      "stateMutability": "view",
      "type": "function"
    },
    {
      "inputs": [
        {
          "internalType": "uint256",
          "name": "index",
          "type": "uint256"
        }
      ],
      "name": "tokenByIndex",
      "outputs": [
        {
          "internalType": "uint256",
          "name": "",
          "type": "uint256"
        }
      ],
      "stateMutability": "view",
      "type": "function"
    },
    {
      "inputs": [
        {
          "internalType": "address",
          "name": "owner",
          "type": "address"
        },
        {
          "internalType": "uint256",
          "name": "index",
          "type": "uint256"
        }
      ],
      "name": "tokenOfOwnerByIndex",
      "outputs": [
        {
          "internalType": "uint256",
          "name": "",
          "type": "uint256"
        }
      ],
      "stateMutability": "view",
      "type": "function"
    },
    {
      "inputs": [
        {
          "internalType": "uint256",
          "name": "tokenId",
          "type": "uint256"
        }
      ],
      "name": "tokenURI",
      "outputs": [
        {
          "internalType": "string",
          "name": "",
          "type": "string"
        }
      ],
      "stateMutability": "view",
      "type": "function"
    },
    {
      "inputs": [],
      "name": "totalMinted",
      "outputs": [
        {
          "internalType": "uint256",
          "name": "",
          "type": "uint256"
        }
      ],
      "stateMutability": "view",
      "type": "function"
    },
    {
      "inputs": [],
      "name": "totalSupply",
      "outputs": [
        {
          "internalType": "uint256",
          "name": "",
          "type": "uint256"
        }
      ],
      "stateMutability": "view",
      "type": "function"
    },
    {
      "inputs": [
        {
          "internalType": "address",
          "name": "from",
          "type": "address"
        },
        {
          "internalType": "address",
          "name": "to",
          "type": "address"
        },
        {
          "internalType": "uint256",
          "name": "tokenId",
          "type": "uint256"
        }
      ],
      "name": "transferFrom",
      "outputs": [],
      "stateMutability": "nonpayable",
      "type": "function"
    },
    {
      "inputs": [
        {
          "internalType": "address",
          "name": "newOwner",
          "type": "address"
        }
      ],
      "name": "transferOwnership",
      "outputs": [],
      "stateMutability": "nonpayable",
      "type": "function"
    },
    {
      "inputs": [
        {
          "internalType": "uint256",
          "name": "tokenId",
          "type": "uint256"
        },
        {
          "internalType": "address",
          "name": "receiver",
          "type": "address"
        },
        {
          "internalType": "uint96",
          "name": "feeBps",
          "type": "uint96"
        }
      ],
      "name": "updateTokenRoyalty",
      "outputs": [],
      "stateMutability": "nonpayable",
      "type": "function"
    },
    {
      "inputs": [],
      "name": "withdraw",
      "outputs": [],
      "stateMutability": "nonpayable",
      "type": "function"
    }
  ],
  "bytecode": "0x60a0604052601380546001600160601b0319166101f4179055348015610023575f5ffd5b50604051612d67380380612d6783398101604081905261004291610265565b3385855f610050838261038a565b50600161005d828261038a565b5050506001600160a01b03811661008e57604051631e4fbdf760e01b81525f60048201526024015b60405180910390fd5b610097816100d5565b506001600e5560116100a9848261038a565b50608082905260108190556013546100cb9033906001600160601b0316610126565b5050505050610444565b600d80546001600160a01b038381166001600160a01b0319831681179093556040519116919082907f8be0079c531659141344cd1fd0a4f28419497f9722a3daafe3b4186f6b6457e0905f90a35050565b6127106001600160601b03821681101561016557604051636f483d0960e01b81526001600160601b038316600482015260248101829052604401610085565b6001600160a01b03831661018e57604051635b6cc80560e11b81525f6004820152602401610085565b50604080518082019091526001600160a01b039092168083526001600160601b039091166020909201829052600160a01b90910217600b55565b634e487b7160e01b5f52604160045260245ffd5b5f82601f8301126101eb575f5ffd5b81516001600160401b03811115610204576102046101c8565b604051601f8201601f19908116603f011681016001600160401b0381118282101715610232576102326101c8565b604052818152838201602001851015610249575f5ffd5b8160208501602083015e5f918101602001919091529392505050565b5f5f5f5f5f60a08688031215610279575f5ffd5b85516001600160401b0381111561028e575f5ffd5b61029a888289016101dc565b602088015190965090506001600160401b038111156102b7575f5ffd5b6102c3888289016101dc565b604088015190955090506001600160401b038111156102e0575f5ffd5b6102ec888289016101dc565b606088015160809098015196999598509695949350505050565b600181811c9082168061031a57607f821691505b60208210810361033857634e487b7160e01b5f52602260045260245ffd5b50919050565b601f82111561038557805f5260205f20601f840160051c810160208510156103635750805b601f840160051c820191505b81811015610382575f815560010161036f565b50505b505050565b81516001600160401b038111156103a3576103a36101c8565b6103b7816103b18454610306565b8461033e565b6020601f8211600181146103e9575f83156103d25750848201515b5f19600385901b1c1916600184901b178455610382565b5f84815260208120601f198516915b8281101561041857878501518255602094850194600190920191016103f8565b508482101561043557868401515f19600387901b60f8161c191681555b50505050600190811b01905550565b6080516128ef6104785f395f818161037b015281816103d101528181610c3b01528181610e96015261111f01526128ef5ff3fe608060405260043610610207575f3560e01c8063715018a611610113578063c87b56dd1161009d578063d6948b751161006d578063d6948b7514610626578063e985e9c514610645578063f2f18baa14610664578063f2fde38b14610683578063f4a0a528146106a2575f5ffd5b8063c87b56dd14610595578063cd53d08e146105b4578063d0def521146105e8578063d48e638a14610607575f5ffd5b806395d89b41116100e357806395d89b411461051c578063a22cb46514610530578063a2309ff81461054f578063b3d7acf914610563578063b88d4fde14610576575f5ffd5b8063715018a6146104b757806375794a3c146104cb57806386e228d5146104e05780638da5cb5b146104ff575f5ffd5b80632f745c59116101945780634f6ccce7116101645780634f6ccce71461042657806355f804b3146104455780636352211e146104645780636817c76c1461048357806370a0823114610498575f5ffd5b80632f745c59146103a157806332cb6b0c146103c05780633ccfd60b146103f357806342842e0e14610407575f5ffd5b806318160ddd116101da57806318160ddd146102b857806318d33e41146102d657806323b872dd1461030d5780632a55205a1461032c5780632da5ea171461036a575f5ffd5b806301ffc9a71461020b57806306fdde031461023f578063081812fc14610260578063095ea7b314610297575b5f5ffd5b348015610216575f5ffd5b5061022a6102253660046120ed565b6106c1565b60405190151581526020015b60405180910390f35b34801561024a575f5ffd5b506102536106d1565b6040516102369190612136565b34801561026b575f5ffd5b5061027f61027a366004612148565b610760565b6040516001600160a01b039091168152602001610236565b3480156102a2575f5ffd5b506102b66102b136600461217a565b610787565b005b3480156102c3575f5ffd5b506008545b604051908152602001610236565b3480156102e1575f5ffd5b506013546102f5906001600160601b031681565b6040516001600160601b039091168152602001610236565b348015610318575f5ffd5b506102b66103273660046121a2565b610796565b348015610337575f5ffd5b5061034b6103463660046121dc565b610824565b604080516001600160a01b039093168352602083019190915201610236565b348015610375575f5ffd5b50600f547f0000000000000000000000000000000000000000000000000000000000000000111561022a565b3480156103ac575f5ffd5b506102c86103bb36600461217a565b6108a9565b3480156103cb575f5ffd5b506102c87f000000000000000000000000000000000000000000000000000000000000000081565b3480156103fe575f5ffd5b506102b661090c565b348015610412575f5ffd5b506102b66104213660046121a2565b6109f1565b348015610431575f5ffd5b506102c8610440366004612148565b610a10565b348015610450575f5ffd5b506102b661045f36600461223a565b610a65565b34801561046f575f5ffd5b5061027f61047e366004612148565b610ab8565b34801561048e575f5ffd5b506102c860105481565b3480156104a3575f5ffd5b506102c86104b2366004612279565b610ac2565b3480156104c2575f5ffd5b506102b6610b07565b3480156104d6575f5ffd5b506102c8600f5481565b3480156104eb575f5ffd5b506102b66104fa3660046122a8565b610b1a565b34801561050a575f5ffd5b50600d546001600160a01b031661027f565b348015610527575f5ffd5b50610253610c17565b34801561053b575f5ffd5b506102b661054a3660046122e1565b610c26565b34801561055a575f5ffd5b50600f546102c8565b6102b661057136600461223a565b610c31565b348015610581575f5ffd5b506102b661059036600461232e565b610e69565b3480156105a0575f5ffd5b506102536105af366004612148565b610e81565b3480156105bf575f5ffd5b5061027f6105ce366004612148565b60126020525f90815260409020546001600160a01b031681565b3480156105f3575f5ffd5b506102b661060236600461240b565b610e8c565b348015610612575f5ffd5b5061027f610621366004612148565b610fe2565b348015610631575f5ffd5b506102b661064036600461245a565b611056565b348015610650575f5ffd5b5061022a61065f366004612473565b6110e5565b34801561066f575f5ffd5b506102b661067e3660046124a4565b611112565b34801561068e575f5ffd5b506102b661069d366004612279565b6112d1565b3480156106ad575f5ffd5b506102b66106bc366004612148565b61130b565b5f6106cb82611351565b92915050565b60605f80546106df90612525565b80601f016020809104026020016040519081016040528092919081815260200182805461070b90612525565b80156107565780601f1061072d57610100808354040283529160200191610756565b820191905f5260205f20905b81548152906001019060200180831161073957829003601f168201915b5050505050905090565b5f61076a82611375565b505f828152600460205260409020546001600160a01b03166106cb565b6107928282336113ad565b5050565b6001600160a01b0382166107c457604051633250574960e11b81525f60048201526024015b60405180910390fd5b5f6107d08383336113ba565b9050836001600160a01b0316816001600160a01b03161461081e576040516364283d7b60e01b81526001600160a01b03808616600483015260248201849052821660448201526064016107bb565b50505050565b5f828152600c6020526040812080548291906001600160a01b03811690600160a01b90046001600160601b031681610877575050600b546001600160a01b03811690600160a01b90046001600160601b03165b5f61271061088e6001600160601b03841689612571565b6108989190612588565b9295509193505050505b9250929050565b5f6108b383610ac2565b82106108e45760405163295f44f760e21b81526001600160a01b0384166004820152602481018390526044016107bb565b506001600160a01b03919091165f908152600660209081526040808320938352929052205490565b6109146113ce565b478061094f5760405162461bcd60e51b815260206004820152600a6024820152694e6f2062616c616e636560b01b60448201526064016107bb565b5f610962600d546001600160a01b031690565b6001600160a01b0316826040515f6040518083038185875af1925050503d805f81146109a9576040519150601f19603f3d011682016040523d82523d5f602084013e6109ae565b606091505b50509050806107925760405162461bcd60e51b815260206004820152600f60248201526e15da5d1a191c985dc819985a5b1959608a1b60448201526064016107bb565b610a0b83838360405180602001604052805f815250610e69565b505050565b5f610a1a60085490565b8210610a425760405163295f44f760e21b81525f6004820152602481018390526044016107bb565b60088281548110610a5557610a556125a7565b905f5260205f2001549050919050565b610a6d6113ce565b6011610a7a8284836125ff565b507f6741b2fc379fad678116fe3d4d4b9a1a184ab53ba36b86ad0fa66340b1ab41ad8282604051610aac9291906126b9565b60405180910390a15050565b5f6106cb82611375565b5f6001600160a01b038216610aec576040516322718ad960e21b81525f60048201526024016107bb565b506001600160a01b03165f9081526003602052604090205490565b610b0f6113ce565b610b185f6113fb565b565b5f838152601260205260409020546001600160a01b03163314610b6d5760405162461bcd60e51b815260206004820152600b60248201526a2737ba1031b932b0ba37b960a91b60448201526064016107bb565b6103e8816001600160601b03161115610bbb5760405162461bcd60e51b815260206004820152601060248201526f0a4def2c2d8e8f240e8dede40d0d2ced60831b60448201526064016107bb565b610bc683838361144c565b604080516001600160a01b03841681526001600160601b038316602082015284917f19dc52c4a51cd356464f1965b7872ac6388fb669cee13a05e1ded99b903127a3910160405180910390a2505050565b6060600180546106df90612525565b61079233838361150c565b610c396115aa565b7f0000000000000000000000000000000000000000000000000000000000000000600f5410610c9f5760405162461bcd60e51b815260206004820152601260248201527113585e081cdd5c1c1b1e481c995858da195960721b60448201526064016107bb565b601054341015610ce85760405162461bcd60e51b8152602060048201526014602482015273125b9cdd59999a58da595b9d081c185e5b595b9d60621b60448201526064016107bb565b600f80549081905f610cf9836126e7565b9190505550610d0833826115d4565b610d478184848080601f0160208091040260200160405190810160405280939291908181526020018383808284375f920191909152506115ed92505050565b5f81815260126020526040902080546001600160a01b03191633908117909155601354610d7e9183916001600160601b031661144c565b601054341115610e1a576010545f903390610d9990346126ff565b6040515f81818185875af1925050503d805f8114610dd2576040519150601f19603f3d011682016040523d82523d5f602084013e610dd7565b606091505b5050905080610e185760405162461bcd60e51b815260206004820152600d60248201526c1499599d5b990819985a5b1959609a1b60448201526064016107bb565b505b80336001600160a01b03167fe7cd4ce7f2a465edc730269a1305e8a48bad821e8fb7e152ec413829c01a53c48585604051610e569291906126b9565b60405180910390a3506107926001600e55565b610e74848484610796565b61081e3385858585611635565b60606106cb8261175d565b610e946113ce565b7f0000000000000000000000000000000000000000000000000000000000000000600f5410610efa5760405162461bcd60e51b815260206004820152601260248201527113585e081cdd5c1c1b1e481c995858da195960721b60448201526064016107bb565b600f80549081905f610f0b836126e7565b9190505550610f1a84826115d4565b610f598184848080601f0160208091040260200160405190810160405280939291908181526020018383808284375f920191909152506115ed92505050565b5f81815260126020526040902080546001600160a01b0319166001600160a01b038616179055601354610f9890829086906001600160601b031661144c565b80846001600160a01b03167fe7cd4ce7f2a465edc730269a1305e8a48bad821e8fb7e152ec413829c01a53c48585604051610fd49291906126b9565b60405180910390a350505050565b5f818152600260205260408120546001600160a01b031661103b5760405162461bcd60e51b8152602060048201526013602482015272151bdad95b88191bd95cdb89dd08195e1a5cdd606a1b60448201526064016107bb565b505f908152601260205260409020546001600160a01b031690565b61105e6113ce565b6103e8816001600160601b031611156110ac5760405162461bcd60e51b815260206004820152601060248201526f0a4def2c2d8e8f240e8dede40d0d2ced60831b60448201526064016107bb565b601380546bffffffffffffffffffffffff19166001600160601b038316179055600d546110e2906001600160a01b031682611854565b50565b6001600160a01b039182165f90815260056020908152604080832093909416825291909152205460ff1690565b61111a6113ce565b600f547f00000000000000000000000000000000000000000000000000000000000000009061114a908390612712565b11156111985760405162461bcd60e51b815260206004820152601760248201527f576f756c6420657863656564206d617820737570706c7900000000000000000060448201526064016107bb565b5f5b8181101561081e57600f80549081905f6111b3836126e7565b91905055506111c285826115d4565b611223818585858181106111d8576111d86125a7565b90506020028101906111ea9190612725565b8080601f0160208091040260200160405190810160405280939291908181526020018383808284375f920191909152506115ed92505050565b5f81815260126020526040902080546001600160a01b0319166001600160a01b03871617905560135461126290829087906001600160601b031661144c565b80856001600160a01b03167fe7cd4ce7f2a465edc730269a1305e8a48bad821e8fb7e152ec413829c01a53c48686868181106112a0576112a06125a7565b90506020028101906112b29190612725565b6040516112c09291906126b9565b60405180910390a35060010161119a565b6112d96113ce565b6001600160a01b03811661130257604051631e4fbdf760e01b81525f60048201526024016107bb565b6110e2816113fb565b6113136113ce565b601080549082905560408051828152602081018490527f2e1c9e000c6e8dda4d03536adb13b7cb6034ccff90d17f01de381e4d5097b5259101610aac565b5f6001600160e01b0319821663152a902d60e11b14806106cb57506106cb826118f6565b5f818152600260205260408120546001600160a01b0316806106cb57604051637e27328960e01b8152600481018490526024016107bb565b610a0b838383600161191a565b5f6113c6848484611a1e565b949350505050565b600d546001600160a01b03163314610b185760405163118cdaa760e01b81523360048201526024016107bb565b600d80546001600160a01b038381166001600160a01b0319831681179093556040519116919082907f8be0079c531659141344cd1fd0a4f28419497f9722a3daafe3b4186f6b6457e0905f90a35050565b6127106001600160601b0382168110156114925760405163dfd1fc1b60e01b8152600481018590526001600160601b0383166024820152604481018290526064016107bb565b6001600160a01b0383166114c257604051634b4f842960e11b8152600481018590525f60248201526044016107bb565b506040805180820182526001600160a01b0393841681526001600160601b0392831660208083019182525f968752600c90529190942093519051909116600160a01b029116179055565b6001600160a01b03821661153e57604051630b61174360e31b81526001600160a01b03831660048201526024016107bb565b6001600160a01b038381165f81815260056020908152604080832094871680845294825291829020805460ff191686151590811790915591519182527f17307eab39ab6107e8899845ad3d59bd9653f200f220920489ca2b5937696c31910160405180910390a3505050565b6002600e54036115cd57604051633ee5aeb560e01b815260040160405180910390fd5b6002600e55565b610792828260405180602001604052805f815250611ae9565b5f828152600a602052604090206116048282612768565b506040518281527ff8e1a15aba9398e019f0b49df1a4fde98ee17ae345cb5f6b5e2c27f5033e8ce790602001610aac565b6001600160a01b0383163b1561175657604051630a85bd0160e11b81526001600160a01b0384169063150b7a0290611677908890889087908790600401612823565b6020604051808303815f875af19250505080156116b1575060408051601f3d908101601f191682019092526116ae9181019061285f565b60015b611718573d8080156116de576040519150601f19603f3d011682016040523d82523d5f602084013e6116e3565b606091505b5080515f0361171057604051633250574960e11b81526001600160a01b03851660048201526024016107bb565b805160208201fd5b6001600160e01b03198116630a85bd0160e11b1461175457604051633250574960e11b81526001600160a01b03851660048201526024016107bb565b505b5050505050565b606061176882611375565b505f828152600a60205260408120805461178190612525565b80601f01602080910402602001604051908101604052809291908181526020018280546117ad90612525565b80156117f85780601f106117cf576101008083540402835291602001916117f8565b820191905f5260205f20905b8154815290600101906020018083116117db57829003601f168201915b505050505090505f611808611b00565b905080515f03611819575092915050565b81511561184b578082604051602001611833929190612891565b60405160208183030381529060405292505050919050565b6113c684611b0f565b6127106001600160601b03821681101561189357604051636f483d0960e01b81526001600160601b0383166004820152602481018290526044016107bb565b6001600160a01b0383166118bc57604051635b6cc80560e11b81525f60048201526024016107bb565b50604080518082019091526001600160a01b039092168083526001600160601b039091166020909201829052600160a01b90910217600b55565b5f6001600160e01b03198216632483248360e11b14806106cb57506106cb82611b74565b808061192e57506001600160a01b03821615155b156119ef575f61193d84611375565b90506001600160a01b038316158015906119695750826001600160a01b0316816001600160a01b031614155b801561197c575061197a81846110e5565b155b156119a55760405163a9fbf51f60e01b81526001600160a01b03841660048201526024016107bb565b81156119ed5783856001600160a01b0316826001600160a01b03167f8c5be1e5ebec7d5bd14f71427d1e84f3dd0314c0f7b2291e5b200ac8c7c3b92560405160405180910390a45b505b50505f90815260046020526040902080546001600160a01b0319166001600160a01b0392909216919091179055565b5f5f611a2b858585611b98565b90506001600160a01b038116611a8757611a8284600880545f838152600960205260408120829055600182018355919091527ff3f7a9fe364faab93b216da50a3214154f22a0a2b415b23a84c8169e8b636ee30155565b611aaa565b846001600160a01b0316816001600160a01b031614611aaa57611aaa8185611c8a565b6001600160a01b038516611ac657611ac184611d07565b6113c6565b846001600160a01b0316816001600160a01b0316146113c6576113c68585611dae565b611af38383611dfc565b610a0b335f858585611635565b6060601180546106df90612525565b6060611b1a82611375565b505f611b24611b00565b90505f815111611b425760405180602001604052805f815250611b6d565b80611b4c84611e5d565b604051602001611b5d929190612891565b6040516020818303038152906040525b9392505050565b5f6001600160e01b0319821663780e9d6360e01b14806106cb57506106cb82611eed565b5f828152600260205260408120546001600160a01b0390811690831615611bc457611bc4818486611f3c565b6001600160a01b03811615611bfe57611bdf5f855f5f61191a565b6001600160a01b0381165f90815260036020526040902080545f190190555b6001600160a01b03851615611c2c576001600160a01b0385165f908152600360205260409020805460010190555b5f8481526002602052604080822080546001600160a01b0319166001600160a01b0389811691821790925591518793918516917fddf252ad1be2c89b69c2b068fc378daa952ba7f163c4a11628f55a4df523b3ef91a4949350505050565b5f611c9483610ac2565b5f838152600760209081526040808320546001600160a01b0388168452600690925290912091925090818314611ce9575f83815260208281526040808320548584528184208190558352600790915290208290555b5f938452600760209081526040808620869055938552525081205550565b6008545f90611d18906001906126ff565b5f8381526009602052604081205460088054939450909284908110611d3f57611d3f6125a7565b905f5260205f20015490508060088381548110611d5e57611d5e6125a7565b5f918252602080832090910192909255828152600990915260408082208490558582528120556008805480611d9557611d956128a5565b600190038181905f5260205f20015f9055905550505050565b5f6001611dba84610ac2565b611dc491906126ff565b6001600160a01b039093165f908152600660209081526040808320868452825280832085905593825260079052919091209190915550565b6001600160a01b038216611e2557604051633250574960e11b81525f60048201526024016107bb565b5f611e3183835f6113ba565b90506001600160a01b03811615610a0b576040516339e3563760e11b81525f60048201526024016107bb565b60605f611e6983611fa0565b60010190505f8167ffffffffffffffff811115611e8857611e8861231a565b6040519080825280601f01601f191660200182016040528015611eb2576020820181803683370190505b5090508181016020015b5f19016f181899199a1a9b1b9c1cb0b131b232b360811b600a86061a8153600a8504945084611ebc57509392505050565b5f6001600160e01b031982166380ac58cd60e01b1480611f1d57506001600160e01b03198216635b5e139f60e01b145b806106cb57506301ffc9a760e01b6001600160e01b03198316146106cb565b611f47838383612077565b610a0b576001600160a01b038316611f7557604051637e27328960e01b8152600481018290526024016107bb565b60405163177e802f60e01b81526001600160a01b0383166004820152602481018290526044016107bb565b5f8072184f03e93ff9f4daa797ed6e38ed64bf6a1f0160401b8310611fde5772184f03e93ff9f4daa797ed6e38ed64bf6a1f0160401b830492506040015b6d04ee2d6d415b85acef8100000000831061200a576d04ee2d6d415b85acef8100000000830492506020015b662386f26fc10000831061202857662386f26fc10000830492506010015b6305f5e1008310612040576305f5e100830492506008015b612710831061205457612710830492506004015b60648310612066576064830492506002015b600a83106106cb5760010192915050565b5f6001600160a01b038316158015906113c65750826001600160a01b0316846001600160a01b031614806120b057506120b084846110e5565b806113c65750505f908152600460205260409020546001600160a01b03908116911614919050565b6001600160e01b0319811681146110e2575f5ffd5b5f602082840312156120fd575f5ffd5b8135611b6d816120d8565b5f81518084528060208401602086015e5f602082860101526020601f19601f83011685010191505092915050565b602081525f611b6d6020830184612108565b5f60208284031215612158575f5ffd5b5035919050565b80356001600160a01b0381168114612175575f5ffd5b919050565b5f5f6040838503121561218b575f5ffd5b6121948361215f565b946020939093013593505050565b5f5f5f606084860312156121b4575f5ffd5b6121bd8461215f565b92506121cb6020850161215f565b929592945050506040919091013590565b5f5f604083850312156121ed575f5ffd5b50508035926020909101359150565b5f5f83601f84011261220c575f5ffd5b50813567ffffffffffffffff811115612223575f5ffd5b6020830191508360208285010111156108a2575f5ffd5b5f5f6020838503121561224b575f5ffd5b823567ffffffffffffffff811115612261575f5ffd5b61226d858286016121fc565b90969095509350505050565b5f60208284031215612289575f5ffd5b611b6d8261215f565b80356001600160601b0381168114612175575f5ffd5b5f5f5f606084860312156122ba575f5ffd5b833592506122ca6020850161215f565b91506122d860408501612292565b90509250925092565b5f5f604083850312156122f2575f5ffd5b6122fb8361215f565b91506020830135801515811461230f575f5ffd5b809150509250929050565b634e487b7160e01b5f52604160045260245ffd5b5f5f5f5f60808587031215612341575f5ffd5b61234a8561215f565b93506123586020860161215f565b925060408501359150606085013567ffffffffffffffff81111561237a575f5ffd5b8501601f8101871361238a575f5ffd5b803567ffffffffffffffff8111156123a4576123a461231a565b604051601f8201601f19908116603f0116810167ffffffffffffffff811182821017156123d3576123d361231a565b6040528181528282016020018910156123ea575f5ffd5b816020840160208301375f6020838301015280935050505092959194509250565b5f5f5f6040848603121561241d575f5ffd5b6124268461215f565b9250602084013567ffffffffffffffff811115612441575f5ffd5b61244d868287016121fc565b9497909650939450505050565b5f6020828403121561246a575f5ffd5b611b6d82612292565b5f5f60408385031215612484575f5ffd5b61248d8361215f565b915061249b6020840161215f565b90509250929050565b5f5f5f604084860312156124b6575f5ffd5b6124bf8461215f565b9250602084013567ffffffffffffffff8111156124da575f5ffd5b8401601f810186136124ea575f5ffd5b803567ffffffffffffffff811115612500575f5ffd5b8660208260051b8401011115612514575f5ffd5b939660209190910195509293505050565b600181811c9082168061253957607f821691505b60208210810361255757634e487b7160e01b5f52602260045260245ffd5b50919050565b634e487b7160e01b5f52601160045260245ffd5b80820281158282048414176106cb576106cb61255d565b5f826125a257634e487b7160e01b5f52601260045260245ffd5b500490565b634e487b7160e01b5f52603260045260245ffd5b601f821115610a0b57805f5260205f20601f840160051c810160208510156125e05750805b601f840160051c820191505b81811015611756575f81556001016125ec565b67ffffffffffffffff8311156126175761261761231a565b61262b836126258354612525565b836125bb565b5f601f84116001811461265c575f85156126455750838201355b5f19600387901b1c1916600186901b178355611756565b5f83815260208120601f198716915b8281101561268b578685013582556020948501946001909201910161266b565b50868210156126a7575f1960f88860031b161c19848701351681555b505060018560011b0183555050505050565b60208152816020820152818360408301375f818301604090810191909152601f909201601f19160101919050565b5f600182016126f8576126f861255d565b5060010190565b818103818111156106cb576106cb61255d565b808201808211156106cb576106cb61255d565b5f5f8335601e1984360301811261273a575f5ffd5b83018035915067ffffffffffffffff821115612754575f5ffd5b6020019150368190038213156108a2575f5ffd5b815167ffffffffffffffff8111156127825761278261231a565b612796816127908454612525565b846125bb565b6020601f8211600181146127c8575f83156127b15750848201515b5f19600385901b1c1916600184901b178455611756565b5f84815260208120601f198516915b828110156127f757878501518255602094850194600190920191016127d7565b508482101561281457868401515f19600387901b60f8161c191681555b50505050600190811b01905550565b6001600160a01b03858116825284166020820152604081018390526080606082018190525f9061285590830184612108565b9695505050505050565b5f6020828403121561286f575f5ffd5b8151611b6d816120d8565b5f81518060208401855e5f93019283525090919050565b5f6113c661289f838661287a565b8461287a565b634e487b7160e01b5f52603160045260245ffdfea26469706673582212207594d13dd37881a3aceb3529b80243069a8870aab341c8d970509c8b66335beb64736f6c634300081c0033",
  "linkReferences": {},
  "deployedLinkReferences": {},
  "immutableReferences": {
    "7490": [
      {
        "length": 32,
        "start": 891
      },
      {
        "length": 32,
        "start": 977
      },
      {
        "length": 32,
        "start": 3131
      },
      {
        "length": 32,
        "start": 3734
      },
      {
        "length": 32,
        "start": 4383
      }
    ]
  },
  "inputSourceName": "project/contracts/SongNFT.sol",
  "buildInfoId": "solc-0_8_28-1600261739ffc55a07ebbca2ca20948da9f5afcc"
}