{
  "_format": "hh3-artifact-1",
  "contractName": "NFTMarketplace",
  "sourceName": "contracts/NFTMarketplace.sol",
  "abi": [
    {
      "inputs": [
        {
          "internalType": "address",
          "name": "_feeRecipient",
          "type": "address"
        }
      ],
      "stateMutability": "nonpayable",
      "type": "constructor"
    },
    {
      "inputs": [
        {
          "internalType": "address",
          "name": "owner",
          "type": "address"
        }
      ],
      "name": "OwnableInvalidOwner",
      "type": "error"
    },
    {
      "inputs": [
        {
          "internalType": "address",
          "name": "account",
          "type": "address"
        }
      ],
      "name": "OwnableUnauthorizedAccount",
      "type": "error"
    },
    {
      "inputs": [],
      "name": "ReentrancyGuardReentrantCall",
      "type": "error"
    },
    {
      "anonymous": false,
      "inputs": [
        {
          "indexed": true,
          "internalType": "address",
          "name": "seller",
          "type": "address"
        },
        {
          "indexed": true,
          "internalType": "address",
          "name": "nft",
          "type": "address"
        },
        {
          "indexed": true,
          "internalType": "uint256",
          "name": "tokenId",
          "type": "uint256"
        }
      ],
      "name": "Cancelled",
      "type": "event"
    },
    {
      "anonymous": false,
      "inputs": [
        {
          "indexed": false,
          "internalType": "address",
          "name": "oldRecipient",
          "type": "address"
        },
        {
          "indexed": false,
          "internalType": "address",
          "name": "newRecipient",
          "type": "address"
        }
      ],
      "name": "FeeRecipientUpdated",
      "type": "event"
    },
    {
      "anonymous": false,
      "inputs": [
        {
          "indexed": true,
          "internalType": "address",
          "name": "seller",
          "type": "address"
        },
        {
          "indexed": true,
          "internalType": "address",
          "name": "nft",
          "type": "address"
        },
        {
          "indexed": true,
          "internalType": "uint256",
          "name": "tokenId",
          "type": "uint256"
        },
        {
          "indexed": false,
          "internalType": "uint256",
          "name": "price",
          "type": "uint256"
        },
        {
          "indexed": false,
          "internalType": "uint256",
          "name": "timestamp",
          "type": "uint256"
        }
      ],
      "name": "Listed",
      "type": "event"
    },
    {
      "anonymous": false,
      "inputs": [
        {
          "indexed": false,
          "internalType": "uint256",
          "name": "oldPrice",
          "type": "uint256"
        },
        {
          "indexed": false,
          "internalType": "uint256",
          "name": "newPrice",
          "type": "uint256"
        }
      ],
      "name": "MinListingPriceUpdated",
      "type": "event"
    },
    {
      "anonymous": false,
      "inputs": [
        {
          "indexed": true,
          "internalType": "address",
          "name": "seller",
          "type": "address"
        },
        {
          "indexed": true,
          "internalType": "address",
          "name": "buyer",
          "type": "address"
        },
        {
          "indexed": true,
          "internalType": "address",
          "name": "nft",
          "type": "address"
        },
        {
          "indexed": false,
          "internalType": "uint256",
          "name": "tokenId",
          "type": "uint256"
        },
        {
          "indexed": false,
          "internalType": "uint256",
          "name": "amount",
          "type": "uint256"
        }
      ],
      "name": "OfferAccepted",
      "type": "event"
    },
    {
      "anonymous": false,
      "inputs": [
        {
          "indexed": true,
          "internalType": "address",
          "name": "buyer",
          "type": "address"
        },
        {
          "indexed": true,
          "internalType": "address",
          "name": "nft",
          "type": "address"
        },
        {
          "indexed": true,
          "internalType": "uint256",
          "name": "tokenId",
          "type": "uint256"
        },
        {
          "indexed": false,
          "internalType": "uint256",
          "name": "offerIndex",
          "type": "uint256"
        }
      ],
      "name": "OfferCancelled",
      "type": "event"
    },
    {
      "anonymous": false,
      "inputs": [
        {
          "indexed": true,
          "internalType": "address",
          "name": "buyer",
          "type": "address"
        },
        {
          "indexed": true,
          "internalType": "address",
          "name": "nft",
          "type": "address"
        },
        {
          "indexed": true,
          "internalType": "uint256",
          "name": "tokenId",
          "type": "uint256"
        },
        {
          "indexed": false,
          "internalType": "uint256",
          "name": "amount",
          "type": "uint256"
        },
        {
          "indexed": false,
          "internalType": "uint256",
          "name": "expiry",
          "type": "uint256"
        }
      ],
      "name": "OfferMade",
      "type": "event"
    },
    {
      "anonymous": false,
      "inputs": [
        {
          "indexed": true,
          "internalType": "address",
          "name": "previousOwner",
          "type": "address"
        },
        {
          "indexed": true,
          "internalType": "address",
          "name": "newOwner",
          "type": "address"
        }
      ],
      "name": "OwnershipTransferred",
      "type": "event"
    },
    {
      "anonymous": false,
      "inputs": [
        {
          "indexed": false,
          "internalType": "uint256",
          "name": "oldFee",
          "type": "uint256"
        },
        {
          "indexed": false,
          "internalType": "uint256",
          "name": "newFee",
          "type": "uint256"
        }
      ],
      "name": "PlatformFeeUpdated",
      "type": "event"
    },
    {
      "anonymous": false,
      "inputs": [
        {
          "indexed": true,
          "internalType": "address",
          "name": "seller",
          "type": "address"
        },
        {
          "indexed": true,
          "internalType": "address",
          "name": "nft",
          "type": "address"
        },
        {
          "indexed": true,
          "internalType": "uint256",
          "name": "tokenId",
          "type": "uint256"
        },
        {
          "indexed": false,
          "internalType": "uint256",
          "name": "oldPrice",
          "type": "uint256"
        },
        {
          "indexed": false,
          "internalType": "uint256",
          "name": "newPrice",
          "type": "uint256"
        }
      ],
      "name": "PriceUpdated",
      "type": "event"
    },
    {
      "anonymous": false,
      "inputs": [
        {
          "indexed": true,
          "internalType": "address",
          "name": "buyer",
          "type": "address"
        },
        {
          "indexed": true,
          "internalType": "address",
          "name": "seller",
          "type": "address"
        },
        {
          "indexed": true,
          "internalType": "address",
          "name": "nft",
          "type": "address"
        },
        {
          "indexed": false,
          "internalType": "uint256",
          "name": "tokenId",
          "type": "uint256"
        },
        {
          "indexed": false,
          "internalType": "uint256",
          "name": "price",
          "type": "uint256"
        },
        {
          "indexed": false,
          "internalType": "uint256",
          "name": "platformFee",
          "type": "uint256"
        },
        {
          "indexed": false,
          "internalType": "uint256",
          "name": "royaltyAmount",
          "type": "uint256"
        }
      ],
      "name": "Sold",
      "type": "event"
    },
    {
      "inputs": [],
      "name": "MAX_PLATFORM_FEE",
      "outputs": [
        {
          "internalType": "uint256",
          "name": "",
          "type": "uint256"
        }
      ],
      "stateMutability": "view",
      "type": "function"
    },
    {
      "inputs": [
        {
          "internalType": "address",
          "name": "nft",
          "type": "address"
        },
        {
          "internalType": "uint256",
          "name": "tokenId",
          "type": "uint256"
        },
        {
          "internalType": "uint256",
          "name": "offerIndex",
          "type": "uint256"
        }
      ],
      "name": "acceptOffer",
      "outputs": [],
      "stateMutability": "nonpayable",
      "type": "function"
    },
    {
      "inputs": [
        {
          "internalType": "address",
          "name": "nft",
          "type": "address"
        },
        {
          "internalType": "uint256",
          "name": "tokenId",
          "type": "uint256"
        }
      ],
      "name": "buyNFT",
      "outputs": [],
      "stateMutability": "payable",
      "type": "function"
    },
    {
      "inputs": [
        {
          "internalType": "address",
          "name": "nft",
          "type": "address"
        },
        {
          "internalType": "uint256",
          "name": "tokenId",
          "type": "uint256"
        },
        {
          "internalType": "uint256",
          "name": "salePrice",
          "type": "uint256"
        }
      ],
      "name": "calculateFees",
      "outputs": [
        {
          "internalType": "uint256",
          "name": "platformFee",
          "type": "uint256"
        },
        {
          "internalType": "uint256",
          "name": "royaltyAmount",
          "type": "uint256"
        },
        {
          "internalType": "address",
          "name": "royaltyReceiver",
          "type": "address"
        }
      ],
      "stateMutability": "view",
      "type": "function"
    },
    {
      "inputs": [
        {
          "internalType": "address",
          "name": "nft",
          "type": "address"
        },
        {
          "internalType": "uint256",
          "name": "tokenId",
          "type": "uint256"
        }
      ],
      "name": "cancelListing",
      "outputs": [],
      "stateMutability": "nonpayable",
      "type": "function"
    },
    {
      "inputs": [
        {
          "internalType": "address",
          "name": "nft",
          "type": "address"
        },
        {
          "internalType": "uint256",
          "name": "tokenId",
          "type": "uint256"
        },
        {
          "internalType": "uint256",
          "name": "offerIndex",
          "type": "uint256"
        }
      ],
      "name": "cancelOffer",
      "outputs": [],
      "stateMutability": "nonpayable",
      "type": "function"
    },
    {
      "inputs": [],
      "name": "feeRecipient",
      "outputs": [
        {
          "internalType": "address",
          "name": "",
          "type": "address"
        }
      ],
      "stateMutability": "view",
      "type": "function"
    },
    {
      "inputs": [
        {
          "internalType": "address",
          "name": "nft",
          "type": "address"
        },
        {
          "internalType": "uint256",
          "name": "tokenId",
          "type": "uint256"
        }
      ],
      "name": "getListing",
      "outputs": [
        {
          "internalType": "address",
          "name": "seller",
          "type": "address"
        },
        {
          "internalType": "uint256",
          "name": "price",
          "type": "uint256"
        },
        {
          "internalType": "uint256",
          "name": "listedAt",
          "type": "uint256"
        }
      ],
      "stateMutability": "view",
      "type": "function"
    },
    {
      "inputs": [
        {
          "internalType": "address",
          "name": "nft",
          "type": "address"
        },
        {
          "internalType": "uint256",
          "name": "tokenId",
          "type": "uint256"
        }
      ],
      "name": "getOffers",
      "outputs": [
        {
          "components": [
            {
              "internalType": "address",
              "name": "buyer",
              "type": "address"
            },
            {
              "internalType": "uint256",
              "name": "amount",
              "type": "uint256"
            },
            {
              "internalType": "uint256",
              "name": "expiry",
              "type": "uint256"
            }
          ],
          "internalType": "struct NFTMarketplace.Offer[]",
          "name": "",
          "type": "tuple[]"
        }
      ],
      "stateMutability": "view",
      "type": "function"
    },
    {
      "inputs": [
        {
          "internalType": "address",
          "name": "nft",
          "type": "address"
        },
        {
          "internalType": "uint256",
          "name": "tokenId",
          "type": "uint256"
        }
      ],
      "name": "isListed",
      "outputs": [
        {
          "internalType": "bool",
          "name": "",
          "type": "bool"
        }
      ],
      "stateMutability": "view",
      "type": "function"
    },
    {
      "inputs": [
        {
          "internalType": "address",
          "name": "nft",
          "type": "address"
        },
        {
          "internalType": "uint256",
          "name": "tokenId",
          "type": "uint256"
        },
        {
          "internalType": "uint256",
          "name": "price",
          "type": "uint256"
        }
      ],
      "name": "listNFT",
      "outputs": [],
      "stateMutability": "nonpayable",
      "type": "function"
    },
    {
      "inputs": [
        {
          "internalType": "address",
          "name": "",
          "type": "address"
        },
        {
          "internalType": "uint256",
          "name": "",
          "type": "uint256"
        }
      ],
      "name": "listings",
      "outputs": [
        {
          "internalType": "address",
          "name": "seller",
          "type": "address"
        },
        {
          "internalType": "uint256",
          "name": "price",
          "type": "uint256"
        },
        {
          "internalType": "uint256",
          "name": "listedAt",
          "type": "uint256"
        }
      ],
      "stateMutability": "view",
      "type": "function"
    },
    {
      "inputs": [
        {
          "internalType": "address",
          "name": "nft",
          "type": "address"
        },
        {
          "internalType": "uint256",
          "name": "tokenId",
          "type": "uint256"
        },
        {
          "internalType": "uint256",
          "name": "expiry",
          "type": "uint256"
        }
      ],
      "name": "makeOffer",
      "outputs": [],
      "stateMutability": "payable",
      "type": "function"
    },
    {
      "inputs": [],
      "name": "minListingPrice",
      "outputs": [
        {
          "internalType": "uint256",
          "name": "",
          "type": "uint256"
        }
      ],
      "stateMutability": "view",
      "type": "function"
    },
    {
      "inputs": [
        {
          "internalType": "address",
          "name": "",
          "type": "address"
        },
        {
          "internalType": "uint256",
          "name": "",
          "type": "uint256"
        },
        {
          "internalType": "uint256",
          "name": "",
          "type": "uint256"
        }
      ],
      "name": "offers",
      "outputs": [
        {
          "internalType": "address",
          "name": "buyer",
          "type": "address"
        },
        {
          "internalType": "uint256",
          "name": "amount",
          "type": "uint256"
        },
        {
          "internalType": "uint256",
          "name": "expiry",
          "type": "uint256"
        }
      ],
      "stateMutability": "view",
      "type": "function"
    },
    {
      "inputs": [],
      "name": "owner",
      "outputs": [
        {
          "internalType": "address",
          "name": "",
          "type": "address"
        }
      ],
      "stateMutability": "view",
      "type": "function"
    },
    {
      "inputs": [],
      "name": "platformFeeBps",
      "outputs": [
        {
          "internalType": "uint256",
          "name": "",
          "type": "uint256"
        }
      ],
      "stateMutability": "view",
      "type": "function"
    },
    {
      "inputs": [],
      "name": "renounceOwnership",
      "outputs": [],
      "stateMutability": "nonpayable",
      "type": "function"
    },
    {
      "inputs": [
        {
          "internalType": "address",
          "name": "newRecipient",
          "type": "address"
        }
      ],
      "name": "setFeeRecipient",
      "outputs": [],
      "stateMutability": "nonpayable",
      "type": "function"
    },
    {
      "inputs": [
        {
          "internalType": "uint256",
          "name": "newMinPrice",
          "type": "uint256"
        }
      ],
      "name": "setMinListingPrice",
      "outputs": [],
      "stateMutability": "nonpayable",
      "type": "function"
    },
    {
      "inputs": [
        {
          "internalType": "uint256",
          "name": "newFeeBps",
          "type": "uint256"
        }
      ],
      "name": "setPlatformFee",
      "outputs": [],
      "stateMutability": "nonpayable",
      "type": "function"
    },
    {
      "inputs": [],
      "name": "totalFeesCollected",
      "outputs": [
        {
          "internalType": "uint256",
          "name": "",
          "type": "uint256"
        }
      ],
      "stateMutability": "view",
      "type": "function"
    },
    {
      "inputs": [],
      "name": "totalVolume",
      "outputs": [
        {
          "internalType": "uint256",
          "name": "",
          "type": "uint256"
        }
      ],
      "stateMutability": "view",
      "type": "function"
    },
    {
      "inputs": [
        {
          "internalType": "address",
          "name": "newOwner",
          "type": "address"
        }
      ],
      "name": "transferOwnership",
      "outputs": [],
      "stateMutability": "nonpayable",
      "type": "function"
    },
    {
      "inputs": [
        {
          "internalType": "address",
          "name": "nft",
          "type": "address"
        },
        {
          "internalType": "uint256",
          "name": "tokenId",
          "type": "uint256"
        },
        {
          "internalType": "uint256",
          "name": "newPrice",
          "type": "uint256"
        }
      ],
      "name": "updatePrice",
      "outputs": [],
      "stateMutability": "nonpayable",
      "type": "function"
    }
  ],
  "bytecode": "0x608060405260fa60025566038d7ea4c6800060045534801561001f575f5ffd5b5060405161224a38038061224a83398101604081905261003e9161013c565b338061006457604051631e4fbdf760e01b81525f60048201526024015b60405180910390fd5b61006d816100ed565b50600180556001600160a01b0381166100c85760405162461bcd60e51b815260206004820152601560248201527f496e76616c69642066656520726563697069656e740000000000000000000000604482015260640161005b565b600380546001600160a01b0319166001600160a01b0392909216919091179055610169565b5f80546001600160a01b038381166001600160a01b0319831681178455604051919092169283917f8be0079c531659141344cd1fd0a4f28419497f9722a3daafe3b4186f6b6457e09190a35050565b5f6020828403121561014c575f5ffd5b81516001600160a01b0381168114610162575f5ffd5b9392505050565b6120d4806101765f395ff3fe608060405260043610610160575f3560e01c80638da5cb5b116100cd578063cdb3cd2511610087578063e74b981b11610062578063e74b981b14610478578063ea98a95014610497578063f2fde38b146104c3578063f501c163146104e2575f5ffd5b8063cdb3cd251461040b578063e3b436771461043a578063e57d6fb714610459575f5ffd5b80638da5cb5b1461036a5780639ba6a78514610386578063a82ba76f1461039b578063ad05f1b4146103ae578063b2ddee06146103cd578063b33e156e146103ec575f5ffd5b8063469048401161011e57806346904840146102745780635f81a57c146102ab57806360c6d8ae146102c0578063715018a6146102d55780637de3bd07146102e957806388700d1c146102fc575f5ffd5b806207df30146101645780630e030d6a146101dd57806312e8e2c3146101fe57806322dcd13e1461021d5780633998a681146102405780633c6fc81714610255575b5f5ffd5b34801561016f575f5ffd5b506101b361017e366004611ebb565b600560209081525f92835260408084209091529082529020805460018201546002909201546001600160a01b03909116919083565b604080516001600160a01b0390941684526020840192909252908201526060015b60405180910390f35b3480156101e8575f5ffd5b506101fc6101f7366004611ee5565b610525565b005b348015610209575f5ffd5b506101fc610218366004611f17565b61078c565b348015610228575f5ffd5b5061023260025481565b6040519081526020016101d4565b34801561024b575f5ffd5b506102326103e881565b348015610260575f5ffd5b506101fc61026f366004611ee5565b61081b565b34801561027f575f5ffd5b50600354610293906001600160a01b031681565b6040516001600160a01b0390911681526020016101d4565b3480156102b6575f5ffd5b5061023260075481565b3480156102cb575f5ffd5b5061023260085481565b3480156102e0575f5ffd5b506101fc610db9565b6101fc6102f7366004611ee5565b610dcc565b348015610307575f5ffd5b506101b3610316366004611ebb565b6001600160a01b039182165f90815260056020908152604080832093835292815290829020825160608101845281549094168085526001820154928501839052600290910154939092018390529092909190565b348015610375575f5ffd5b505f546001600160a01b0316610293565b348015610391575f5ffd5b5061023260045481565b6101fc6103a9366004611ebb565b6110dc565b3480156103b9575f5ffd5b506101fc6103c8366004611ee5565b611574565b3480156103d8575f5ffd5b506101fc6103e7366004611ebb565b61189e565b3480156103f7575f5ffd5b506101fc610406366004611f17565b61199e565b348015610416575f5ffd5b5061042a610425366004611ebb565b6119e4565b60405190151581526020016101d4565b348015610445575f5ffd5b506101b3610454366004611ee5565b611a13565b348015610464575f5ffd5b506101fc610473366004611ee5565b611a67565b348015610483575f5ffd5b506101fc610492366004611f2e565b611b77565b3480156104a2575f5ffd5b506104b66104b1366004611ebb565b611c21565b6040516101d49190611f50565b3480156104ce575f5ffd5b506101fc6104dd366004611f2e565b611cc0565b3480156104ed575f5ffd5b506105016104fc366004611ee5565b611cfd565b6040805193845260208401929092526001600160a01b0316908201526060016101d4565b61052d611d1b565b6001600160a01b0383165f90815260066020908152604080832085845290915290208054821061059a5760405162461bcd60e51b8152602060048201526013602482015272092dcecc2d8d2c840decccccae440d2dcc8caf606b1b60448201526064015b60405180910390fd5b5f8183815481106105ad576105ad611fb4565b5f91825260209182902060408051606081018252600390930290910180546001600160a01b031680845260018201549484019490945260020154908201529150331461062d5760405162461bcd60e51b815260206004820152600f60248201526e2737ba1037b33332b91036b0b5b2b960891b6044820152606401610591565b5f8160200151116106745760405162461bcd60e51b8152602060048201526011602482015270105b1c9958591e4818d85b98d95b1b1959607a1b6044820152606401610591565b5f82848154811061068757610687611fb4565b905f5260205f209060030201600101819055505f336001600160a01b031682602001516040515f6040518083038185875af1925050503d805f81146106e7576040519150601f19603f3d011682016040523d82523d5f602084013e6106ec565b606091505b505090508061072d5760405162461bcd60e51b815260206004820152600d60248201526c1499599d5b990819985a5b1959609a1b6044820152606401610591565b84866001600160a01b0316336001600160a01b03167f39c6408c19a462e1ebb68424f4f9507f840516c1d483ed1f640b2209fbd798e88760405161077391815260200190565b60405180910390a450505061078760018055565b505050565b610794611d45565b6103e88111156107d55760405162461bcd60e51b815260206004820152600c60248201526b08ccaca40e8dede40d0d2ced60a31b6044820152606401610591565b600280549082905560408051828152602081018490527fd347e206f25a89b917fc9482f1a2d294d749baa4dc9bde7fb495ee11fe49164391015b60405180910390a15050565b610823611d1b565b6040516331a9108f60e11b815260048101839052839033906001600160a01b03831690636352211e90602401602060405180830381865afa15801561086a573d5f5f3e3d5ffd5b505050506040513d601f19601f8201168201806040525081019061088e9190611fc8565b6001600160a01b0316146108d05760405162461bcd60e51b81526020600482015260096024820152682737ba1037bbb732b960b91b6044820152606401610591565b6001600160a01b0384165f9081526006602090815260408083208684529091529020805483106109385760405162461bcd60e51b8152602060048201526013602482015272092dcecc2d8d2c840decccccae440d2dcc8caf606b1b6044820152606401610591565b5f81848154811061094b5761094b611fb4565b5f91825260209182902060408051606081018252600390930290910180546001600160a01b03168352600181015493830193909352600290920154918101829052915042106109cc5760405162461bcd60e51b815260206004820152600d60248201526c13d999995c88195e1c1a5c9959609a1b6044820152606401610591565b5f816020015111610a115760405162461bcd60e51b815260206004820152600f60248201526e13d999995c8818d85b98d95b1b1959608a1b6044820152606401610591565b5f828581548110610a2457610a24611fb4565b5f918252602080832060016003909302018201939093556001600160a01b0389168252600583526040808320898452909352919020015415610a9c576001600160a01b0386165f908152600560209081526040808320888452909152812080546001600160a01b031916815560018101829055600201555b5f5f5f610aae89898660200151611d71565b9250925092505f82848660200151610ac69190611ff7565b610ad09190611ff7565b90508315610b7a576003546040515f916001600160a01b03169086908381818185875af1925050503d805f8114610b22576040519150601f19603f3d011682016040523d82523d5f602084013e610b27565b606091505b5050905080610b785760405162461bcd60e51b815260206004820152601c60248201527f506c6174666f726d20666565207472616e73666572206661696c6564000000006044820152606401610591565b505b5f83118015610b9157506001600160a01b03821615155b15610c31575f826001600160a01b0316846040515f6040518083038185875af1925050503d805f8114610bdf576040519150601f19603f3d011682016040523d82523d5f602084013e610be4565b606091505b5050905080610c2f5760405162461bcd60e51b8152602060048201526017602482015276149bde585b1d1e481d1c985b9cd9995c8819985a5b1959604a1b6044820152606401610591565b505b6040515f90339083908381818185875af1925050503d805f8114610c70576040519150601f19603f3d011682016040523d82523d5f602084013e610c75565b606091505b5050905080610cbf5760405162461bcd60e51b815260206004820152601660248201527514d95b1b195c881d1c985b9cd9995c8819985a5b195960521b6044820152606401610591565b8551604051632142170760e11b81523360048201526001600160a01b039182166024820152604481018c9052908916906342842e0e906064015f604051808303815f87803b158015610d0f575f5ffd5b505af1158015610d21573d5f5f3e3d5ffd5b50505050856020015160075f828254610d3a919061200a565b925050819055508460085f828254610d52919061200a565b90915550508551602080880151604080518e8152928301919091526001600160a01b03808f1693169133917f0a9756441113352b887af081006fd8b72d9d363b932a49ed871784ce92a429f6910160405180910390a4505050505050505061078760018055565b610dc1611d45565b610dca5f611e58565b565b610dd4611d1b565b600454341015610e165760405162461bcd60e51b815260206004820152600d60248201526c4f6666657220746f6f206c6f7760981b6044820152606401610591565b428111610e565760405162461bcd60e51b815260206004820152600e60248201526d496e76616c69642065787069727960901b6044820152606401610591565b610e634262278d0061200a565b811115610ea35760405162461bcd60e51b815260206004820152600e60248201526d22bc3834b93c903a37b7903330b960911b6044820152606401610591565b6040516331a9108f60e11b81526004810183905283905f906001600160a01b03831690636352211e90602401602060405180830381865afa158015610eea573d5f5f3e3d5ffd5b505050506040513d601f19601f82011682018060405250810190610f0e9190611fc8565b6001600160a01b031603610f5a5760405162461bcd60e51b8152602060048201526013602482015272151bdad95b88191bd95cdb89dd08195e1a5cdd606a1b6044820152606401610591565b6040516331a9108f60e11b81526004810184905233906001600160a01b03831690636352211e90602401602060405180830381865afa158015610f9f573d5f5f3e3d5ffd5b505050506040513d601f19601f82011682018060405250810190610fc39190611fc8565b6001600160a01b0316036110195760405162461bcd60e51b815260206004820152601760248201527f43616e6e6f74206f66666572206f6e206f776e204e46540000000000000000006044820152606401610591565b6001600160a01b038481165f8181526006602090815260408083208884528252808320815160608101835233808252348286018181528386018c8152855460018082018855968a52988890209451600390990290940180546001600160a01b03191698909a169790971789559551928801929092555160029096019590955580519283529082018690528693917fadf73a75394c531a3324c8361fc633abf30044bdd7645eb3f658a31e2aadc93891015b60405180910390a45061078760018055565b6110e4611d1b565b6001600160a01b038083165f908152600560209081526040808320858452825291829020825160608101845281549094168452600181015491840182905260020154918301919091526111665760405162461bcd60e51b815260206004820152600a602482015269139bdd081b1a5cdd195960b21b6044820152606401610591565b806020015134146111ab5760405162461bcd60e51b815260206004820152600f60248201526e496e636f727265637420707269636560881b6044820152606401610591565b8051336001600160a01b03909116036111ff5760405162461bcd60e51b815260206004820152601660248201527543616e6e6f7420627579206f776e206c697374696e6760501b6044820152606401610591565b6001600160a01b0383165f9081526005602090815260408083208584528252822080546001600160a01b0319168155600181018390556002018290558201518190819061124f9087908790611d71565b9250925092505f828486602001516112679190611ff7565b6112719190611ff7565b9050831561131b576003546040515f916001600160a01b03169086908381818185875af1925050503d805f81146112c3576040519150601f19603f3d011682016040523d82523d5f602084013e6112c8565b606091505b50509050806113195760405162461bcd60e51b815260206004820152601c60248201527f506c6174666f726d20666565207472616e73666572206661696c6564000000006044820152606401610591565b505b5f8311801561133257506001600160a01b03821615155b156113d2575f826001600160a01b0316846040515f6040518083038185875af1925050503d805f8114611380576040519150601f19603f3d011682016040523d82523d5f602084013e611385565b606091505b50509050806113d05760405162461bcd60e51b8152602060048201526017602482015276149bde585b1d1e481d1c985b9cd9995c8819985a5b1959604a1b6044820152606401610591565b505b84516040515f916001600160a01b03169083908381818185875af1925050503d805f811461141b576040519150601f19603f3d011682016040523d82523d5f602084013e611420565b606091505b505090508061146a5760405162461bcd60e51b815260206004820152601660248201527514d95b1b195c881d1c985b9cd9995c8819985a5b195960521b6044820152606401610591565b8551604051632142170760e11b81526001600160a01b03918216600482015233602482015260448101899052908916906342842e0e906064015f604051808303815f87803b1580156114ba575f5ffd5b505af11580156114cc573d5f5f3e3d5ffd5b50505050856020015160075f8282546114e5919061200a565b925050819055508460085f8282546114fd919061200a565b90915550508551602080880151604080518b8152928301919091528101879052606081018690526001600160a01b038a811692169033907fc0f40bb013ff386e72adada3804b6e63f58c983fc5ea97a8be1cd8d2fecac48a9060800160405180910390a450505050505061157060018055565b5050565b61157c611d1b565b6004548110156115c45760405162461bcd60e51b815260206004820152601360248201527250726963652062656c6f77206d696e696d756d60681b6044820152606401610591565b6001600160a01b0383165f908152600560209081526040808320858452909152902060010154156116285760405162461bcd60e51b815260206004820152600e60248201526d105b1c9958591e481b1a5cdd195960921b6044820152606401610591565b6040516331a9108f60e11b815260048101839052839033906001600160a01b03831690636352211e90602401602060405180830381865afa15801561166f573d5f5f3e3d5ffd5b505050506040513d601f19601f820116820180604052508101906116939190611fc8565b6001600160a01b0316146116d55760405162461bcd60e51b81526020600482015260096024820152682737ba1037bbb732b960b91b6044820152606401610591565b60405163020604bf60e21b81526004810184905230906001600160a01b0383169063081812fc90602401602060405180830381865afa15801561171a573d5f5f3e3d5ffd5b505050506040513d601f19601f8201168201806040525081019061173e9190611fc8565b6001600160a01b031614806117ba575060405163e985e9c560e01b81523360048201523060248201526001600160a01b0382169063e985e9c590604401602060405180830381865afa158015611796573d5f5f3e3d5ffd5b505050506040513d601f19601f820116820180604052508101906117ba919061201d565b6118065760405162461bcd60e51b815260206004820152601860248201527f4d61726b6574706c616365206e6f7420617070726f76656400000000000000006044820152606401610591565b60408051606081018252338082526020808301868152428486018181526001600160a01b038b81165f818152600587528981208d82528752899020975188546001600160a01b0319169216919091178755925160018701555160029095019490945584518781529182019390935286937fabfb5edcb4ca5ae4ac3d101f5e471e4bd364ff2a111db101f887c2d45737e33191016110ca565b6118a6611d1b565b6001600160a01b038083165f908152600560209081526040808320858452825291829020825160608101845281549094168085526001820154928501929092526002015491830191909152331461192c5760405162461bcd60e51b815260206004820152600a6024820152692737ba1039b2b63632b960b11b6044820152606401610591565b6001600160a01b0383165f81815260056020908152604080832086845290915280822080546001600160a01b0319168155600181018390556002018290555184929133917f915fb8c652d6245752cc491b71bd8e87ab6761417f8d2ca353c8055103294c039190a45061157060018055565b6119a6611d45565b600480549082905560408051828152602081018490527f0fde191e1dd6436c2df678d2e8dc086c254266a7cd442968f2895b83c9860a41910161080f565b6001600160a01b0382165f90815260056020908152604080832084845290915290206001015415155b92915050565b6006602052825f5260405f20602052815f5260405f208181548110611a36575f80fd5b5f9182526020909120600390910201805460018201546002909201546001600160a01b039091169450909250905083565b611a6f611d1b565b6001600160a01b038084165f908152600560209081526040808320868452909152902080549091163314611ad25760405162461bcd60e51b815260206004820152600a6024820152692737ba1039b2b63632b960b11b6044820152606401610591565b600454821015611b1a5760405162461bcd60e51b815260206004820152601360248201527250726963652062656c6f77206d696e696d756d60681b6044820152606401610591565b60018101805490839055604080518281526020810185905285916001600160a01b0388169133917f9a3f414f907ddb77231900d221b663199d0a42096ca010e25f0bb7292c409b4e910160405180910390a4505061078760018055565b611b7f611d45565b6001600160a01b038116611bc75760405162461bcd60e51b815260206004820152600f60248201526e496e76616c6964206164647265737360881b6044820152606401610591565b600380546001600160a01b038381166001600160a01b031983168117909355604080519190921680825260208201939093527faaebcf1bfa00580e41d966056b48521fa9f202645c86d4ddf28113e617c1b1d3910161080f565b6001600160a01b0382165f9081526006602090815260408083208484528252808320805482518185028101850190935280835260609492939192909184015b82821015611cb4575f848152602090819020604080516060810182526003860290920180546001600160a01b0316835260018082015484860152600290910154918301919091529083529092019101611c60565b50505050905092915050565b611cc8611d45565b6001600160a01b038116611cf157604051631e4fbdf760e01b81525f6004820152602401610591565b611cfa81611e58565b50565b5f5f5f611d0b868686611d71565b9250925092505b93509350939050565b600260015403611d3e57604051633ee5aeb560e01b815260040160405180910390fd5b6002600155565b5f546001600160a01b03163314610dca5760405163118cdaa760e01b8152336004820152602401610591565b5f5f5f61271060025485611d85919061203c565b611d8f9190612053565b60405163152a902d60e11b815260048101879052602481018690529093506001600160a01b03871690632a55205a906044016040805180830381865afa925050508015611df9575060408051601f3d908101601f19168201909252611df691810190612072565b60015b611e0757505f905080611e0c565b925090505b83611e17838561200a565b10611d125760405162461bcd60e51b8152602060048201526011602482015270466565732065786365656420707269636560781b6044820152606401610591565b5f80546001600160a01b038381166001600160a01b0319831681178455604051919092169283917f8be0079c531659141344cd1fd0a4f28419497f9722a3daafe3b4186f6b6457e09190a35050565b6001600160a01b0381168114611cfa575f5ffd5b5f5f60408385031215611ecc575f5ffd5b8235611ed781611ea7565b946020939093013593505050565b5f5f5f60608486031215611ef7575f5ffd5b8335611f0281611ea7565b95602085013595506040909401359392505050565b5f60208284031215611f27575f5ffd5b5035919050565b5f60208284031215611f3e575f5ffd5b8135611f4981611ea7565b9392505050565b602080825282518282018190525f918401906040840190835b81811015611fa957835180516001600160a01b03168452602080820151818601526040918201519185019190915290930192606090920191600101611f69565b509095945050505050565b634e487b7160e01b5f52603260045260245ffd5b5f60208284031215611fd8575f5ffd5b8151611f4981611ea7565b634e487b7160e01b5f52601160045260245ffd5b81810381811115611a0d57611a0d611fe3565b80820180821115611a0d57611a0d611fe3565b5f6020828403121561202d575f5ffd5b81518015158114611f49575f5ffd5b8082028115828204841417611a0d57611a0d611fe3565b5f8261206d57634e487b7160e01b5f52601260045260245ffd5b500490565b5f5f60408385031215612083575f5ffd5b825161208e81611ea7565b602093909301519294929350505056fea2646970667358221220b00bbc7c88bcc55fefea5557f6bc9a4322a7a61dbfe399b6cad1785ab79e067764736f6c634300081c0033",
  "linkReferences": {},
  "deployedLinkReferences": {},
  "immutableReferences": {},
  "inputSourceName": "project/contracts/NFTMarketplace.sol",
  "buildInfoId": "solc-0_8_28-62ca50f068a75cab88b2f193447312497918c488"
}